:020000020000FC
:1000000012C00000000000008FC0000000000000CF
:1000100000000000000000000000000000000000E0
:100020000000000000003FE53DBF34E03EBF222756
:10003000A89528E121BD2FE021BD22E027BB2FEFAD
:1000400028BB22E024BB20E325BB789433273DBDA9
:100050003CBD32BF34BD33BD20E02BBF20E023BD0B
:1000600024BD25E025BD222729B7206429BF32E819
:100070003FBD3CE13EBD26E227BD20E026BD23E09A
:100080002BBD25E42ABD789461D0A895FECF2091A0
:1000900060003091610043E059EE531B420B77241E
:1000A00088249924AA24BB24CC24DD24EE24509354
:1000B0006200752E842E543378F023E3B22E02D1E1
:1000C00023E3721A2227820A20916200721A2227E1
:1000D000820A87BC76BC08955A3228F02BE027BDEF
:1000E0002BE626BD0895503228F029E027BD20EBED
:1000F00026BD0895563128F028E027BD20E426BD0E
:1001000008955C3028F026E027BD20EB26BD089539
:10011000553028F025E027BD25E426BD089523E0CD
:1001200027BD25E426BD0895222724BD11962AE87F
:1001300039E0A217B30708F41895222724BD25BD7E
:1001400005D0BB27AA2725E025BD189530E01395DB
:10015000143611F0DED09BDF089531E07CD0412FC2
:1001600032E079D0512F21E0420F2227521F20EC9C
:10017000421738EA530738F431E0142F56D0152FC0
:1001800032E053D00895332766D0139533274DD0EE
:1001900044275527F1CF1F932F9328E0111F10F00C
:1001A000A49A01C0A498A5986BD0A59A69D02A9565
:1001B000A9F7A49865D0A59863D088949C990894D1
:1001C000A59A5ED02F911F91089511E0A59AA49849
:1001D00057D0A59855D088949C990894111FB0F7D2
:1001E000A59A4ED016F0A49801C0A49A889448D03D
:1001F000A59846D00895A498A59842D09C9BFBCF83
:100200009D9BF9CFA49A3CD0A59A3AD00895A49A80
:10021000A59A36D0A59834D0A49832D088949C99C9
:1002200008959D99089508940895AC98AD9821E09B
:10023000412FE1DF10EAAFDF48F0132FACDF30F0E1
:10024000142FA9DF20F0E3DF10F008951F9110F4C0
:100250002A9571F70895AC98AD98CDDF10EA9BDF31
:1002600060F0132F98DF48F0C6DF11EA94DF28F022
:10027000E894ABDFCCDF08F008952A9571F7089574
:100280003F9330E23A95F1F73F9100000000089566
:100290004F935F93552788944427731A820A940AD0
:1002A000A40A48F05FB741E0B40E4427C41ED41E30
:1002B000E41E5FBFF1CF730E821E941EA41E5F91D9
:1002C0004F91089522272C2D382D3F93239FA12C49
:1002D000902C2B2D372D3F93239F812C702C2C2D70
:1002E0003F91239F080C802C292D211D922E2A2D11
:1002F0003327231FA22E2B2D3F91239F080C802CE8
:10030000292D211D922E2A2D3327231FA22E292984
:1003100008953327F1E0E8E9E10FF31FEE0FFF1F27
:10032000EE7F0591009360000491009361000895B1
:1003300003E803E603E403E203E003DE03DC03DA9D
:1003400003D803D603D403D203D003CE03CC03CA0D
:1003500003C803C403C203C003BE03BC03BA03B88B
:1003600003B603B403B203B003AE03AE03AC03AAF7
:1003700003A803A603A403A203A0039E039C039A5D
:1003800003980396039403920390038E038C038ACD
:1003900003880386038403820380037E037C037A3D
:1003A00003780376037403720370036E036C036AAD
:1003B00003680366036403620360035E035C035A1D
:1003C00003580356035403520350034E034C034A8D
:1003D00003480346034403420340033E033C033AFD
:1003E00003380336033403320330032E032C032A6D
:0803F000032803260324032265
:00000001FF
