:020000020000FC
:1000000012C00000000000008EC0000000000000D0
:1000100000000000000000000000000000000000E0
:100020000000000000003FE53DBF34E03EBF222756
:10003000A89528E121BD2FE021BD22E027BB2FEFAD
:1000400028BB22E324BB20E325BB789433273DBDA6
:100050003CBD32BF34BD33BD20E02BBF20E023BD0B
:1000600024BD25E025BD222729B7206429BF32E819
:100070003FBD3CE13EBD26E227BD20E026BD23E09A
:100080002BBD25E42ABD7894A895FECF2091600071
:100090003091610043E059EE531B420B77248824D2
:1000A0009924AA24BB24CC24DD24EE24509362009E
:1000B000752E842E543378F023E3B22E11D123E32E
:1000C000721A2227820A20916200721A2227820A5B
:1000D00087BC76BC08955A3228F02BE027BD2BE66A
:1000E00026BD0895503228F029E027BD20EB26BD1B
:1000F0000895563128F028E027BD20E426BD089554
:100100005C3028F026E027BD20EB26BD0895553051
:1001100028F025E027BD25E426BD089523E027BD6E
:1001200025E426BD0895222724BD119620E130E064
:10013000A217B30708F41895D7B5C6B5219724E4DC
:1001400033E0C217D30728F0D7BDC6BDBB27AA2707
:100150001895BB27AA2722271895DD27CC2780D002
:10016000E6D00895DD27C1E07BD0412FC2E078D0F2
:10017000512F21E0420F2227521F20EC421738EA6C
:10018000530740F4DD27C1E0142F56D0152FC2E0ED
:1001900053D00895DD27CC2763D013954DD0442745
:1001A0005527F0CF1F932F9328E0111F10F0A49A2A
:1001B00001C0A498A59872D0A59A70D02A95A9F7E5
:1001C000A4986CD0A5986AD088949C990894A59A14
:1001D00065D02F911F91089511E0A59AA4985ED043
:1001E000A5985CD088949C990894111FB0F7A59AA3
:1001F00055D016F0A49801C0A49A88944FD0A59821
:100200004DD00895A498A59849D09C9BFBCF9D9B69
:10021000F9CFA49A43D0A59A41D00895A49AA59A5B
:100220003DD0A5983BD0A49839D088949C99089546
:100230009D99089508940895AC98AD9828E71F9368
:10024000E1DF10EAAFDF28F11D2FACDF10F11C2F2A
:10025000A9DFF8F01F91A6DFE8F0E0DFD8F00895FD
:10026000AC98AD9828E7CEDF10EA9CDF78F01D2F20
:1002700099DF60F01C2F96DF48F0C4DF11EA92DFAF
:1002800028F0E894A9DFCADF08F008952A9559F705
:1002900008951F9110F42A9591F608953F9338E040
:1002A0003A95F1F73F910000000008954F935F9356
:1002B000552788944427731A820A940AA40A48F09E
:1002C0005FB741E0B40E4427C41ED41EE41E5FBFD6
:1002D000F1CF730E821E941EA41E5F914F9108955C
:1002E00022272C2D382D3F93239FA12C902C2B2D92
:1002F000372D3F93239F812C702C2C2D3F91239FD2
:10030000080C802C292D211D922E2A2D3327231FE6
:10031000A22E2B2D3F91239F080C802C292D211DCF
:10032000922E2A2D3327231FA22E29290895332701
:10033000F1E0E6EAE10FF31FEE0FFF1FEE7F0591FC
:10034000009360000491009361000895029403E813
:1003500003E803E803E803E803E803E803E803E845
:100360000294029403E803E803E803E803E803E8DF
:1003700003E803E803E803E803E803E803E803E825
:1003800003E803E803E803E803E803E803E803E815
:1003900003E803E803E803E803E803E803E803E805
:1003A00003E803E803E803E803E803E803E803E8F5
:1003B00003E803E803E803E803E803E803E803E8E5
:1003C00003E803E803E803E803E803E803E803E8D5
:1003D00003E803E803E803E803E803E803E803E8C5
:1003E00003E803E803E803E803E803E803E803E8B5
:1003F00003E803E803E803E8029403E803E803E8FA
:1004000003E803E803E803E803E803E803E803E894
:0404100003E803E812
:00000001FF
