:020000040800F2
:10000000E8260020C1CC000891CA000893CA000865
:1000100000000000000000000000000000000000E0
:1000200000000000000000000000000095CA000869
:10003000000000000000000097CA000899CA0008EC
:100040004B940008000000009BCA0008A39500081C
:10005000B3A000084BA40008AFB50008A7CA000869
:1000600000000000B3CA0008DFB60008A3C2000801
:1000700007CA0008D5CA000800000000E1CA00084D
:100080000000000000000000000000000000000070
:10009000EDCA0008000000000000000013CB0008BB
:1000A00000000000F9CA0008000000000000000085
:1000B000FBCA000807CB0008000000000000000099
:1000C00010B582B004F016FF002100914E48016087
:1000D0004C4941605F218160694604F0DDFF040006
:1000E00004F02DFF200002B010BD30B581B0040037
:1000F0004648611801402040081A401CC5094006C6
:1001000000D06D1C04F0F6FE002100914048016013
:10011000A1B23C4A891841608560694604F0BCFF81
:10012000040004F00CFF200001B030BD30B4374AA9
:10013000411811400240891A491CCA09490600D0D9
:10014000521C80B22F4940187F218843D1010918E1
:10015000884209D200222F4B04689508AD005C51FB
:10016000001D121D8842F7D330BC7047F0B581B036
:1001700005002648691801402840081A401CC60995
:10018000400600D0761C04F0B5FEA8B21D49401808
:100190007F218843F1010F18B8420ED200251D4E71
:1001A0000400A808800032582100022004F032FE2A
:1001B000241D2D1DBC42F4D3040004F0C0FEE0B2A7
:1001C00001B0F0BDF0B581B005000C00FFF7AEFF47
:1001D00021002800FFF789FFA8B20A494018220031
:1001E00029000C4E03007F27BB43C01A8008800003
:1001F000301804F0BBFF21002800FFF7B7FF01B063
:10020000F0BD000000D00108C016002080FF0000F3
:10021000CC16002004140020F0B5CA4CA5440020E0
:100220000090C948006801210143C7480160006887
:10023000C107C90F0091009880204005C249496854
:100240000143C14A5160516808400090009801F094
:100250002BF804F0FFFF0820BE498860BE484068C4
:10026000C00701D405F04AFA05F0EAFA05F006FBEA
:1002700005F0F0FBB948006820210143B748016050
:10028000B7480068000506D505F038FCB548016898
:1002900020220A43026005F05BFD05F097FD05F0A2
:1002A0008AFE05F04DFE03F001FE8020C000AC493F
:1002B00088618000A74988600120AB498A680243B1
:1002C0008A600A69120C1204A84B13430B618A68F6
:1002D00006239A43042313438B600A6802231343C3
:1002E0000B608107C96801438207D160116801432F
:1002F00011609F490A689F4B13409F4A1A430A6046
:100300009E4A8A609E4ACA604A68120C12040623FA
:1003100013434B600A68022313430B600A680823E7
:1003200013430B600A6802430A60964B964A1468AE
:100330001C4020431060202000900098002817D017
:100340000098401E00900098002811D00098401E90
:100350000090009800280BD00098401E0090009854
:10036000002805D00098401E009000980028E7D192
:100370008026360610680340334313601068C00FB0
:10038000FCD108680122904308604868000C000412
:10039000062202434A6001250868284308607B481A
:1003A00080B27B4940180068784908607949401854
:1003B00003D003F0A9F902F0EFFE03F097F87648B6
:1003C000CA214162532141627348C0684007FBD58E
:1003D00071484169090C0904DC4A128913019A1A0F
:1003E0009200521E0A43426181680722914304220F
:1003F0000A438260FF214162D44949898A00511829
:100400004900D24AD184CA214162532141628168A4
:10041000CF4A0A4082608168CE4A0A408260C16841
:100420002940FCD05C48C0688007FBD505A80021A6
:10043000002200230EC006C005AC5848007E207183
:100440005648C07E6071A17107960891257405AA6F
:10045000514805F029FF5148407E20714F48007FE8
:1004600060710020A07107960890257405AA0021EC
:10047000494805F0ABFF48488068290201434648D7
:10048000816080686902014343488160FF204249DE
:100490004862FA20800006F0AEF8FA22520040A12D
:1004A00040A006F007FB002801D008F09FF804F0F8
:1004B000E9FB08F0F5F80821002008F005FA012012
:1004C00008F005F90A212C2008F0DDF80121202090
:1004D00008F0D9F82020029064200190C8200090F4
:1004E00032230A220121602008F083F99748007F17
:1004F00004210143954801779620400093490884E0
:100500002248017B40220A430273C248C068284344
:10051000C049C860086805430D602348C11D11919A
:1005200022490C91224903912249109122490E91AE
:1005300022490B9122490A912249401804902248ED
:1005400004E000BFFCFBFFFF341002400F901F4887
:100550000D90ACE1100800500070004000480040D1
:100560001004005000440040087C0040D4300000DB
:10057000080002400F80FFFFA0250000402401403A
:10058000AC160020E8FFFF7F082401403C0000205B
:1005900000D0010856AAAA5500280040581600208D
:1005A0004F4B000041540000B4070020C01200204F
:1005B000F00E0020A90E00205C0E00209204002006
:1005C000680F002027030000C81200202813002015
:1005D000002801D10020F080307BC10900D166E104
:1005E0000E994978002900D161E100210C9AD1705F
:1005F0000E9A51704006400E3073284200D056E1EA
:100600005248007E002800D051E1707B400828420B
:1006100000D04CE1B94F0420B861B9480560307B87
:10062000F1210140317349481C300021002206C0ED
:10063000002008F04CF86807B2490860B24800682A
:10064000A843B14908602805AE49086071480068B0
:10065000A84370490860E803AA490860C00300681D
:10066000A843A90708604809A6490860A748006888
:1006700040218843A54908600826BE61A448416816
:10068000A44A0A4042604168A943416001680422CB
:1006900091430160416849004908416001689E4AF0
:1006A0000A40026004F028FF9C48CA21416253219D
:1006B000416281689A4A0A4082608168244A0A40FD
:1006C00082608168234A0A408260C1684907FCD57C
:1006D0009248C0682840FBD09048C0688007FBD58E
:1006E00090480068042101438E48016080208B49B6
:1006F000C96801408C4A0A438849CA60C9680140F8
:100700008A4A0A438549CA60C96808408849014342
:100710008248C1608348006802218843814908609B
:100720000868490D01437F48016082480068042140
:100730000143804801607B4800682843794908608C
:100740007C480068022188437A4905E000000020C7
:10075000FFFEFFFFFFFDFFFF086070488068A902F1
:1007600001436E4881608068290201436B488160C3
:1007700080686902014369488160FF2067494862D7
:1007800030BF00F001FE00200C9908700C994870F1
:100790000C99887004F05EFDBE6003F087FB05F0E5
:1007A00059F95948016820220A43026062480068EA
:1007B000000507D505F0A2F9604800682021014333
:1007C0005E48016005F0C4FA05F000FB05F0F3FB9C
:1007D00005F0B6FBA80258498861C921C90020006C
:1007E00008F0B0F8D74C207E002803D152480068AA
:1007F00000050CD5524805F0FEFE207F0421014380
:10080000217704F03FFA06F034F906F042F9014886
:1008100002E000BF00080140C1682943C1600168CF
:1008200029430160A807C1682943C16000214162D2
:1008300001680D43056007F033FF0821002008F030
:1008400043F8012007F043FF0A212C2007F01BFF8B
:100850000121202007F017FF202002906420019042
:10086000C820009032230A220121602007F0C1FF36
:10087000BE60FA20400005F0BEFEBE61FA204000D6
:1008800005F0B9FEBE60FA20400005F0B4FEBE617E
:10089000FA20400005F0AFFEBE60FA20400005F0EF
:1008A000AAFEBE61FA20400005F0A5FEBE6001254B
:1008B000C54CC64E307B284208D0A079002805D010
:1008C000707B8008284201D104F0DCF9134F3868AE
:1008D0009C49BF4A02404A6317480068000500D49B
:1008E000BBE0707BFD2101407173307B41210140F1
:1008F00028D1202101433173ABE000BF1008005024
:100900001800005080E100E0004800400030014045
:1009100034100240FFFFFBFFFFEFFFFF0028004005
:10092000FFFBFFFF007000407FFBFFFF7FFEFFFF2C
:100930007FFDFFFF10ED00E0100400500044004078
:10094000DC050000284200D083E07E48808A3C21FC
:1009500008F02AF89F4988767A48808A01900090AA
:1009600001983C2180B208F01FF880B20101091AF9
:1009700089000098401A974948773968386809040F
:10098000090E4906490F8A00511849000005000F59
:1009900008189049497FC2B252183C2A8D4A03DB9D
:1009A000937E5B1C93763C3808185077396838681A
:1009B0000902090E8906890F8A00511849000003AF
:1009C000000F0818834FB97EC2B25218182A00DBF4
:1009D00018380818B876B87E00900A2107F0E4FFAE
:1009E00002010099830018184000081A1043B876D5
:1009F000787F00900A2107F0D7FF02010099830059
:100A000018184000081A10437877B848CA21416284
:100A1000532141628168B64A0A408260C168294018
:100A2000FCD0C069CA490140B87E00040843AF4900
:100A3000C861C869C7490140787F00020843AB49D3
:100A4000C8618868890D0143A8488160FF20A749D3
:100A50004862307B0121014356E0307B4121014057
:100A6000012903D12021014331730CE0284248D0F1
:100A70003448007E002806D0002032490876707B7A
:100A8000FE2101407173CA21796253217962B968EC
:100A9000974A0A40BA60F9682940FCD04D48007E68
:100AA00000900A2107F080FFFA69A949114003016B
:100AB000009A870038184000101A18430006000AF0
:100AC00008438A49C8614348C07E00900A2107F064
:100AD0006BFF8649CA699F4911400301009A87004C
:100AE00038184000101A18430006000C08437F49CC
:100AF000C8618868890D01437C488160FF207B497B
:100B00004862307BFE2101403173307B412101403E
:100B1000402905D1707B022101437173002030818F
:100B2000707B4008284214D00A2005F064FD31890A
:100B3000491C3181707B42082A420AD089B2AC4AF2
:100B400002E000BF00000020914202DBFD210140D5
:100B50007173A848007B002807D0A74800680006EA
:100B600003D5A44800210173C574A248407B002826
:100B700007D0A1480068400603D500209D4948736E
:100B8000CD740C98C078002804D1307BC00901D105
:100B900003F07EFB0E984078002806D1307BC00918
:100BA0000BD103F021FD03F0ABFD0E984078002837
:100BB00003D0307B8021014331736078284253D0C9
:100BC000A08800280ED14FE0B40700203C00002090
:100BD0007F7F3F00581600208008284244D1012022
:100BE00005F009FDCB48A1880818A08000046078B2
:100BF000F2D1062108422ED1E17900292BD008211B
:100C000001436170E11DC44804F0F1FF05F031FFBC
:100C100003F0CCFD0D9B0F9AC049049807F020FF0C
:100C2000BF49049807F03CFFAF21890012A807F0E4
:100C300089FE049ABB4912A807F012FF6078C00829
:100C4000284203D012A806F063FD07E012A9B248BB
:100C500004F0CDFF02E08008284205D105F009FF2D
:100C60006078F7210140617060788108294200D1E5
:100C700087E108210143617003F098FD0D9B0F9AF5
:100C8000A649049807F0ECFEE71DC2A1E01D07F09D
:100C900015FF87422ED17B21E01D07F027FF401C66
:100CA000039988600398806800907D21E01D07F01B
:100CB0001DFF0099401A0399C8806421C1A807F05C
:100CC00041FE0398C2880099C1A807F041FF05F0D2
:100CD000D0FEC1A9B04804F08AFFFA20800005F0D8
:100CE0008AFCE11D049807F0DBFEE0E000280040EC
:100CF000FFFEFFFFA949E01D07F0E0FE87422BD170
:100D00007B21E01D07F0F2FE401C039988600398E8
:100D1000806800907D21E01D07F0E8FE0099401AF0
:100D20000399C8802902C1A807F00CFE0398C28865
:100D30000099C1A807F00CFF05F09BFEC1A97648F9
:100D400004F055FF7649049807F0AAFEFDE000BFC5
:100D5000FFFFC0FFFF80FFFFC149E01D07F0AEFEAF
:100D6000874234D10021002001E0401C491CE21DD3
:100D70008BB2D25C3A2AF8D0002AF7D1401E6946DD
:100D800008700021002001E0401C491CE21D8BB2CC
:100D9000D25C3B2AF8D0002AF7D169460978C0B264
:100DA00081420FD1E11D0A9807F032FF7B210A989A
:100DB00007F09CFE401C0399C8606846007800F06C
:100DC00041FE74E0C649049807F06AFEBDE0A44FF6
:100DD0003900E01D07F072FE002800D1AEE03900B6
:100DE000E01D07F06BFE00220100002008E000BFBC
:100DF000E12E00000816002010080050401C521C74
:100E000093B2CB5C3A2BF9D0002BF8D1401E6A4646
:100E100010700020002201E0521C401C83B2CB5C09
:100E20003B2BF9D0002BF8D168460078D2B2904223
:100E300059D10A9807F0ECFE7B210A9807F056FE7C
:100E4000401C0399C8606846007800F0FBFD290249
:100E5000C1A807F077FD3900E01D07F02FFE1199BA
:100E6000421AE11DC1A807F073FE0100049807F0C3
:100E700017FE6078F72101406170AF21890012A848
:100E800007F060FD049A274912A807F0E9FD607891
:100E9000C008284203D012A806F03AFC03E012A9C9
:100EA0001D4804F0A4FE6078082101436170AF2161
:100EB000890012A807F046FD049A1A4912A807F003
:100EC000CFFD6078C008284203D012A806F020FCAD
:100ED00003E012A9104804F08AFEC82189000A988C
:100EE00007F030FD47E07E49049807F0D9FDAF27B1
:100EF000BF00390012A807F025FD049A094912A87D
:100F000007F0AEFD6078C00828420DD012A806F0A8
:100F1000FFFB0DE0FFFF0000004400400CC700088D
:100F200028C70008F8C7000812A98E4804F05FFE21
:100F30006078F72101406170390008E000BFE31DCF
:100F40000D9A8949049807F08BFDAF21890012A8FA
:100F500007F0F8FC049AC94912A807F081FD6078EF
:100F6000C008284203D012A806F0D2FB03E012A961
:100F70007C4804F03CFE05F07CFD6078F7210140E0
:100F80006170BF480178294229D0808800280ED19D
:100F900025E000BF3A4154000048004040C7000827
:100FA0000878400828421AD1012005F024FBB449F2
:100FB000B4488A88101888800004F1D10878400865
:100FC00028420CD1B04806F0A3FB002803D0AF495B
:100FD000644804F00CFEAE49A94807F0B3FCA848E9
:100FE00000784008284200D1C8E003F0DFFBA44F9E
:100FF0000D9B0F9AA7490B9807F032FDB91D009180
:10100000A5A1B81D07F05AFD009981422AD17B2184
:10101000B81D07F06BFD401C039988600398806839
:1010200000907D21B81D07F061FD0099401A0399D9
:10103000C8803221C1A807F085FC0398C2880099B6
:10104000C1A807F085FD05F014FDC1A9934804F07F
:10105000CEFDFA20800005F0CEFAE11D6CE000BF65
:1010600048C70008B91D00918D49B81D07F026FD3D
:101070000099814227D17B21B81D07F037FD401C24
:10108000039988600398806800907D21B81D07F05F
:101090002DFD0099401A0399C880290212A807F073
:1010A00051FC0398C288009912A807F051FD05F081
:1010B000E0FC12A806F02CFB00285BD073492948FD
:1010C00004F095FD56E0B91D00917649B81D07F072
:1010D000F5FC009981422ED10021002004E000BFE0
:1010E00050C70008401C491C674A8BB2D25C3A2AA0
:1010F000F8D0002AF7D1801E694608700021002030
:1011000001E0401C491CBA1D8BB2D25C3B2AF8D0CE
:10111000002AF7D169460978C0B281420BD17B2100
:10112000594807F0E3FC401C0399C8606846007802
:1011300000F088FC03E091490B9807F0B1FCAF2167
:10114000890012A807F0FEFB0B9A4C4912A807F081
:1011500087FC6078C008284208D012A806F0D8FAA8
:1011600008E000BF00440040B4CD000812A9844844
:1011700004F03DFD4649380007F0E4FB814860215A
:10118000405C00281BD110980078002817D1A44893
:10119000007E002813D10C98007900280FD1A148B7
:1011A000C07A00280BD1A048407E002807D19E4875
:1011B000807D002803D103980078002801D001F039
:1011C00073FF02F097FF02F063FF307B410606D405
:1011D000717BC90703D49349C97C00291ED08109BA
:1011E000294202D0BF2101403173707B284202D0D6
:1011F000FE21014071738B48C17C002901D0002180
:10120000C174307B0521014004D1A079002801D1AF
:1012100003F038FD03F096FC03F0E0FC307B41095D
:1012200029420FD00521014004D1A079002801D125
:1012300003F028FD307BDF210140317303F082FC95
:1012400003F0CCFCB088F18802004A4001D1FFF7DE
:10125000BFF9002801D1FFF7BDF9F080307B0521EF
:10126000014004D1A079002801D103F00BFD03F067
:1012700069FC03F0B3FCFFF7AFF900BFF8C7000843
:101280006C010020FFFF00007201002060C7000811
:10129000460600000CC700083A41540000480040D0
:1012A00040C7000848C7000830B581B05F480168F2
:1012B00001229143016000685D485E490A6802406E
:1012C000CB0C13430B600122A24C23681343236011
:1012D00023685B07FCD563689F4D1D408B0C2B4337
:1012E00063608B0D0D681D430D604968C90707D405
:1012F000216DD5040D432565216DA04D0D4025655B
:10130000216D08402065206D03432365206D800515
:10131000FCD5206D9A490140100408432065206DDA
:10132000910401432165E068F0218843E060E068B2
:1013300094490140E160E06893490140E160E06860
:10134000032188430243E2600C20E1680140042944
:10135000FBD18E4D280005F041F9280005F05EF91B
:10136000E06C0C218843E064E06C89490140E16451
:10137000E06C88490140E16401B030BD50C700080D
:1013800000440040FC0D002030B581B027480168C2
:10139000012291430160006826480168244A0A40FE
:1013A000C10C1143016001206A4C21680143216096
:1013B00021684907FCD56168674A0A400103114367
:1013C0006160E168F0229143E160E1686D4A0A40A2
:1013D000E260E1686C4A0A40E260E16803229143FE
:1013E0000843E0600C20E16801400429FBD1674D0F
:1013F000280005F0F3F8280005F010F9E06C0C2146
:101400008843E064E06C62490140E164E06C61495A
:101410000140E16401B030BD0120BF4988747047CC
:10142000781600200816002000000020002002404E
:10143000FFE7FFFF0070004057480168890700D4AC
:10144000704730B4416802220A434260B348828C3C
:10145000521C0021C48C93B2A34205D30022B04B8E
:101460005C68082565405D608284AE4A1378002B75
:1014700008D093795B1C9371547ADBB2A34201D3F9
:10148000917111705378002B08D0D3795B1CD37104
:10149000547ADBB2A34201D3D17151709378002BFF
:1014A00008D0137A5B1C1372547ADBB2A34201D3C7
:1014B000117291709C4B01229C7B002C10D01C7CE3
:1014C000641C1C749D7CE4B2AC4209D319749973FA
:1014D000934C2468240602D41A73DA7400E019735A
:1014E000DC7B002C10D05C7C641C5C749D7CE4B2C2
:1014F000AC4209D35974D973894C2468640602D468
:101500005A73DA7400E05973884B5C7BA408144268
:101510000BD05C89641C5C81A4B2854DAC4204DBB9
:1015200059815C7BFB2525405D73037F5B0813427B
:101530000DD0C28B521CC283038C92B29A4206D346
:10154000C183017FFD220A4004211143017730BC91
:101550007047000000100240FFE0FFFF754801687F
:10156000C90709D50121C943016073480168734A5D
:101570000A4004211143016070470000FFFFF7FF9C
:10158000FFFFFCFFFFF8FFFFFFC7FFFF0024F40091
:10159000FFF3FFFFFFFFF3FF007C0040F0B585B0D5
:1015A000674C20690126304000D1B3E00127FF439A
:1015B00027615D4D287E002820D02068B043206040
:1015C00068460021002200230EC001600F206946FA
:1015D00008800192FF20903002907130039020002B
:1015E00007F050FB206830432060276100202876F8
:1015F0006E7654480661610C01608BE0687E0028BD
:1016000021D02068B04320606846002100220023DA
:101610000EC001600F206946088001924A4802907E
:10162000600D0390200007F02DFB20680643266024
:10163000276100206876A876600D44490860802004
:101640004349086066E0A87D002826D1684600214D
:10165000002200230EC0016080203E4908602068FF
:10166000B043206069460E80019263200290600DB5
:101670000390200007F006FB2068802101432160D1
:10168000002060622761206830432060802032495A
:10169000486108202B49086105E02F480068802137
:1016A00041402D480160A87D401CA875C0B20828A3
:1016B00030DD8020284948610021A9752168B143A7
:1016C0002160B4490A78521C0A70D2B2052A08D1A6
:1016D00000220A708E70AA7681001C4A11601D4992
:1016E000086004F068FC68460021002200230EC058
:1016F00001600F20694608800192CA480290600D7F
:101700000390200007F0BEFA206830432060276174
:10171000EE752E7605B0F0BDAC160020000000205E
:10172000100800509F0E0020081600203C000020EA
:10173000B80B00001000004008240140E8FFFF7FC4
:101740000008014018080050D7BD000014040140F3
:1017500000E100E080E100E014040050F0B582B048
:10176000B14CE0684005E0682BD580210840AF49C6
:101770000143E16080204003AD490860AD48017E2F
:10178000002900D104E100210176CA2161625321C0
:101790006162A168A84A0A40A260E1684907FCD5D5
:1017A0006169090C090400890201101A8000401EB9
:1017B00008436061A0680721884304210143A160B8
:1017C000E0E09E4DC00500D49AE08020E168014031
:1017D0009B4A0A43E260964982020A600126BB4F97
:1017E0003B7B334200D181E09248808A6946088081
:1017F000684600883C2107F0D7F8A876684600883C
:101800000190009001983C2180B207F0CDF880B2A1
:101810000101091A89000098401A68772168206838
:101820000904090E4906490F8A00511849000005AC
:10183000000F0818697FC2B252183C2A03DBAA7E47
:10184000521CAA763C38081868772168206809027B
:10185000090E8906890F8A00511849000003000FFC
:101860000818A97EC2B25218182A00DB18380818C6
:10187000A876A87E00900A2107F096F80201009948
:10188000830018184000081A1043A876687F00905B
:101890000A2107F089F80201009983001818400016
:1018A000081A10436877CA20606253206062A068FB
:1018B00087490140A160E0683040FCD0E06985497B
:1018C0000140A87E00040843E061E06982490140CC
:1018D000687F00020843E061A068A10D0143A16098
:1018E000FF206062787B06437E7351E0AA7F002A66
:1018F0004ED07A7B012313437B734E4A167619E050
:10190000E068800544D58020E1680140734A0A43BD
:10191000E260474982020A6001226C4B1F7B01266C
:10192000374235D1ED7F002D32D05D7B2E435E7383
:10193000404B1A76CA22626253226262A2683E4B10
:101940001340A360E2685207FCD5E2680240A0237E
:10195000DB431343E360624B04221D6815431D60A3
:10196000E3681840314B0343E3609004086060690A
:10197000000C0004772101436161A06807218843BE
:101980000243A260A068210D0143A160FF206062B4
:1019900002B0F0BDC01200202548016889051DD5A0
:1019A000410D01604F48817E491C8176C9B20329EF
:1019B00037DB4D4808210160012101604B484C494B
:1019C000415C890040184B494B4A1268AF23DB0049
:1019D000D218425080204949086070470168490583
:1019E00005D5010D016001203E4908757047016869
:1019F000090505D5C10C016001203A4948757047B9
:101A00000168090605D580210160012035498873E8
:101A100070470168490604D5402101600120314921
:101A2000C8737047E7030000002800407FFBFFFFFA
:101A30001404014000000020FFFBFFFF58160020A7
:101A40007FFEFFFF010000D17047F0B583B02C4945
:101A500002912C49019104002448F83000908668D6
:101A60003A21300007F042F8401C0099C860009805
:101A7000C0680500A91B4F1E00990F703B2107F09D
:101A800035F8401B00994870FAB23100019807F010
:101A90005FF800984278C168029807F059F800F0A2
:101AA00033F81E21019806F04DFF1E21029806F022
:101AB00047FF3B210098C06807F018F8401C0099C8
:101AC0008860641EC8D103B0F0BD00003C00002057
:101AD000FFFEFFFFFFFFC0FFFF80FFFF7FFDFFFF57
:101AE000007000400816002018080050FC0D00206F
:101AF000C40400009C0400002408014080E100E0D0
:101B0000220F0020040F0020F0B5FFB0DAB014A8B7
:101B10000021002200230EC006C00CA80EC006C083
:101B20000026D548D54F390010313A007832D44DCF
:101B300084235B00EC18D3A30293D3A305930190F5
:101B40000091049214A80021002200230EC006C0B8
:101B50000CA80EC006C001980168002905D00CA889
:101B600007F056F8C9A106F09BFF0098016814A879
:101B700007F04EF8C5A106F093FF14A9200007F066
:101B8000B9F8002800D1DDE00CA9200007F0B2F878
:101B9000002800D1D6E004980168200007F0AAF8D8
:101BA000002800D1DAE000980168200007F0A2F8D0
:101BB000002800D1E5E0019800680390014620006C
:101BC00007F098F8002800D1DBE014A800210022DB
:101BD00000230EC006C00CA80EC006C00398002843
:101BE00006D003990CA807F013F8059906F058FFE2
:101BF0000098016814A807F00BF8059906F050FF4B
:101C000014A9200007F076F8002800D1DCE00CA928
:101C1000200007F06FF8002800D1D5E014A80021BB
:101C2000002200230EC006C00CA80EC006C00198FA
:101C30000168002905D00CA806F0EAFF029906F019
:101C40002FFF0098016814A806F0E2FF029906F041
:101C500027FF14A9200007F04DF8002800D1C5E0A7
:101C60000CA9200007F046F8002800D1BEE014A817
:101C70000021002200230EC006C00CA80EC006C022
:101C800001980168002905D00CA806F0C1FFCEA17B
:101C900006F006FF0098016814A806F0B9FFCAA173
:101CA00006F0FEFE14A9200007F024F8002800D159
:101CB000ADE00CA9200007F01DF8002800D1A6E037
:101CC000761C0498001D04900098001D0090019857
:101CD000001D0190022E00DC34E70A2109A806F05D
:101CE00031FE032000900A2109A806F02BFEF969B5
:101CF00009A806F08DFF65A106F0D2FE93204000F2
:101D00002E1809A9200006F0F5FF002800D0DBE01E
:101D100030783F2800D1D2E0B8A1300006F0EAFFC9
:101D2000002801D001F092F9220031000098281813
:101D3000A03001F0DCFD0120009AAA18A323D054A2
:101D4000AD21A8E293204000291808783F2801D04F
:101D500001F08AF9700029183C316AE2A848B10004
:101D60004018806A9321490069180A783F2A05D0F3
:101D7000220001F03FFE012060218CE2010000F012
:101D800002FF70002E18932040002F1838783F284B
:101D900017D0380007F098F831004E31CB884E212B
:101DA000715A88420ADB834208DB22003900300086
:101DB000483001F079FD012060216CE20A463900CB
:101DC000E1E23100483134E27000281893214900E3
:101DD00069180A783F2A06D02200543001F064FDC9
:101DE0000120602157E20100543122E270002818DE
:101DF0004E309321490069180A783F2A05D0220005
:101E000001F052FD0120602145E2010011E201963E
:101E1000932040002E1830783F284BD079A7390006
:101E2000300006F067FF002807D074A1300006F0EC
:101E300061FF002801D001F009F92200310001986A
:101E400028185A3001F053FD012460216C543900E8
:101E5000300006F04FFF002801D001F008F9684873
:101E6000019989004018806A0090019828185D2126
:101E7000435C5B1CC94A0BE0280000203C000020AA
:101E8000FC0D00204D494E004D4158004355520075
:101E9000C3490CA806F0E4FD0CAA310001982818EB
:101EA0005D23C05C2818A63001F021FDAD202C5424
:101EB00001F0DDF8019829185A3100F082FC0098F1
:101EC0002918A03100F07DFCF969200006F012FF0E
:101ED000002867D1009880003818019030783F289A
:101EE0005CD0009828189D3002903969300006F0C7
:101EF00001FF002806D04248816A300006F0FAFE51
:101F000000280FD10020029A1070009969185A22F7
:101F10008854220031000198806F01F06BFD012090
:101F2000AD2168547969300006F0E4FE002806D03F
:101F30003348C16A300006F0DDFE00280FD10120D1
:101F400002990870009969185A22885422003100B9
:101F50000198806F01F04EFD0120AD216854B969F0
:101F6000300006F0C7FE002808D02548016B30007D
:101F700006F0C0FE002801D001F079F80220029A94
:101F80001070009969185A22885422003100019873
:101F9000806F01F02FFD0120AD217CE10198816F60
:101FA00000F0F1FDF96909A806F032FE06A106F07D
:101FB00077FD09A9200006F09DFE002827D1307882
:101FC0003F2821D00FA101E0454E0000300006F06F
:101FD00091FE002807D009A1300006F08BFE0028F2
:101FE00001D001F033F8220031002800A330009B1B
:101FF000C01801F07CFC0120AD214CE13100000053
:1020000000000020300000002800A330D7E30420A7
:1020100000900A2109A806F095FC396A09A806F083
:10202000F7FDC5A109A806F03BFD09A9200006F0AF
:1020300061FE002800D16BE6396A200006F05AFEE6
:10204000002800D146E7396A09A806F0E1FDBBA1E6
:1020500009A806F025FD09A9200006F04BFE00287E
:10206000ADD0052000900A2109A806F06BFC796A22
:1020700009A806F0CDFDB0A109A806F011FD09A937
:10208000200006F037FE002800D141E6796A2000E2
:1020900006F030FE002800D11CE7796A09A806F096
:1020A000B7FDA6A109A806F0FBFC09A9200006F0CF
:1020B00021FE002800D182E70A211FA806F042FC79
:1020C000B96A1FA806F0A4FD9BA106F0E9FC1FA9B0
:1020D000200006F00FFE002807D130783F2802D0FC
:1020E000310000F0C1FFC84927E0B96A200006F0BE
:1020F00001FE002826D1C54D30783F281CD0300085
:1021000007F0F4F807F0F9F80700EB68AA68110087
:1021100007F024F90AD81800390007F01FF905D88C
:1021200022003100280001F035FC30E031002000B1
:1021300001F08EFE00F09BFF2900200001F0D6FD8B
:1021400000F095FFB96A1FA806F062FD7BA106F0BA
:10215000A7FC1FA9200006F0CDFD002822D1307871
:102160003F2818D0AAA1300006F0C4FD002807D0EF
:10217000A8A1300006F0BEFD002801D000F066FFE7
:10218000A24D220031002800103001F0B0FB0120E8
:10219000287600F06CFFA04913E300BF7CC700085D
:1021A00074C700080A2111A806F0CCFB0720009094
:1021B0000A2111A806F0C6FBF96A11A806F028FD4D
:1021C0005DA106F06DFC11A9200006F093FD00282A
:1021D0000AD130783F2802D0310000F045FF009846
:1021E000400028188D4923E0F96A200006F082FD9E
:1021F000002823D130783F2816D0300006F064FE46
:10220000874969184B880A88904200DABAE083420D
:1022100000DAB7E022003100009840002818814B16
:10222000C01801F041FB33E00098400028187D49B8
:102230004118200001F0F6FC00F019FF0A2111A856
:1022400006F080FBF96A11A806F0E2FC3BA106F05B
:1022500027FC11A9200006F04DFD002822D130787E
:102260003F281BD06AA1300006F044FD002807D0AB
:1022700068A1300006F03EFD002801D000F0E6FE27
:102280002200310000982818674BC01801F02FFB7E
:1022900001209921C900685400F0E9FE009828182F
:1022A00061498DE2082000900A2111A806F04AFB3E
:1022B000396B11A806F0ACFC1FA111A806F0F0FBC9
:1022C00011A9200006F016FD002882D0396B2000ED
:1022D00006F010FD00288DD00A2111A806F032FB6F
:1022E000396B11A806F094FC14A111A806F0D8FBD4
:1022F00011A9200006F0FEFC0028B0D00A2106A893
:1023000006F020FB092000900A2106A806F01AFB1F
:10231000796B06A806F07CFC07A106F0C1FB06A9B4
:10232000200006F0E7FC00280FD130783F2807D0C6
:10233000310000F099FE00BF43555200454E0000A9
:10234000B74800994118891F25E0796B200006F0F5
:10235000D1FC002824D1B24D30783F2818D030006D
:1023600006F0B2FD0A216B5609216A56904209DB3C
:10237000834207DB2200310000982818093801F059
:10238000D9FA37E03100200001F03AFD00F06FFE8D
:10239000009829180939200001F088FC00F067FE38
:1023A0000A2106A806F0CEFA796B06A806F030FCE2
:1023B000D8A106F075FB06A9200006F09BFC0028BA
:1023C00034D130783F2819D011A1300006F092FCAA
:1023D000002807D00FA1300006F08CFC002801D0A7
:1023E00000F034FE8E4D2200310000982818C01EE7
:1023F00001F07DFA0120E87200F039FE884800996A
:102400004118C91EDDE100BF7C16002078160020AF
:102410003000000031000000881600208204000017
:10242000960400007E0400008D0400000A20009045
:102430000A2106A806F086FAB96B06A806F0E8FBA2
:10244000C1A106A806F02CFB06A9200006F052FC4C
:10245000002800D169E7B96B200006F04BFC00288A
:1024600000D178E70A2106A806F06CFAB96B06A835
:1024700006F0CEFBA7A106A806F012FB06A92000D5
:1024800006F038FC00289CD00B2000900A2106A8FA
:1024900006F058FAF96B06A806F0BAFBAAA106A83E
:1024A00006F0FEFA06A9200006F024FC002800D160
:1024B0003BE7F96B200006F01DFC002800D14AE73D
:1024C0000A2106A806F03EFAF96B06A806F0A0FB62
:1024D00090A106A806F0E4FA06A9200006F00AFC7E
:1024E000002800D16DE7796C200006F003FC00287D
:1024F00000D09EE030783F2800D193E0B3A13000B7
:1025000006F0DCFA002807D00299300006F0D6FA6F
:10251000002801D000F09AFDAD4D230032002900C3
:1025200010312800143001F0A7FA0124AC756C7644
:10253000AE8AA84D30003C2106F036FAA87630006D
:102540003C2106F031FA80B20101081A8000301AED
:102550006877A14E326831680F201204120E5206BD
:10256000520F93009A185200090A014051186A7FCD
:10257000CBB29B183C2B03DBAB7E5B1CAB763C39B0
:1025800051186977326831681202120E9206920F62
:1025900093009A185200090C08401018A97EC2B284
:1025A0005218182A00DB18380818A876AF7E3800B1
:1025B0000A2106F0F9F90101820010184000381ACA
:1025C0000843A8766F7F38000A2106F0EDF9010173
:1025D000820010184000381A08436877CA207062D9
:1025E00053207062B0687D490140B160F0682040BE
:1025F000FCD0F0697A490140A87E00040843F061EC
:10260000F06978490140687F00020843F061B068D2
:1026100021020143B160FF20706200F028FD00BF7D
:10262000081600206A48020010320100143100F040
:1026300016FD0A2119A806F085F90E200090B96C44
:10264000200006F057FB002800D089E030783F28B2
:1026500071D0B0782E2801D000F0F8FCF920285C69
:10266000052801D000F0F2FC012059494876009875
:1026700080003F183100B86D06F0CAFA022231001E
:10268000386E06F065FA0222FF202A302918B86E4B
:1026900006F05EFA4F4D386E06F016FC0099691888
:1026A0008872B86E06F010FC00996918487301A88A
:1026B0000021002200230EC006C001A8009969185D
:1026C000897A017100996918497B417100218271F1
:1026D0008022120603920491012101743E4DCA200A
:1026E000686253206862A8683C490140A960A868F4
:1026F0003D490140A960E868C007FCD5E86880074B
:10270000FCD500980E3801AA194605D1280003F01F
:10271000CBFD04E0454E0000280003F057FEA868FA
:10272000A90D0143A960A868690D0143A960FF20B4
:102730006862B96D27E2DD492648009A0E3A05D154
:10274000C37E027E05E000BF43555200037F427EF8
:10275000801D06F085F9009880003818816D12E21E
:102760000A2119A806F0EEF8B96C19A806F050FA7B
:10277000CFA106F095F919A9200006F0BBFA0028B0
:1027800034D130783F2819D0CAA1300006F0B2FA0F
:10279000002807D0C8A1300006F0ACFA002801D00C
:1027A00000F054FC22003100C448009BC01801F026
:1027B0009EF801200649487600F059FCBF48009970
:1027C0004118200001F050FA00F051FC6D696E00D4
:1027D000000000205816002000280040FFFEFFFFE8
:1027E000FFFFC0FFFF80FFFFFFFDFFFF0F200090F6
:1027F000F96C200006F07EFA002800D126E70A21B5
:1028000019A806F09FF8F96C19A806F001FAA8A11A
:1028100019A806F045F919A9200006F06BFA00285E
:10282000AFD0396D200006F065FA002800D047E1EE
:1028300030783F2800D135E1B0782E2801D000F063
:1028400005FC70792E2801D000F000FC307A2F288A
:1028500001D000F0FBFBF07A2E2801D000F0F6FB4F
:10286000B07B2E2800D0F1E3F920285C112800D09D
:10287000ECE33100C648281806F0CAF902223100FC
:10288000C448281806F064F90222FF202A302918CB
:10289000C148281806F05CF9022296204000291849
:1028A000BE48281806F054F90222FF2030302918BB
:1028B000BB48281806F04CF902229920400029183C
:1028C000B848281806F044F90222FF2036302918AB
:1028D000B548281806F03CF9AE48281806F0F4FA76
:1028E0009E21C9006854AC48281806F0EDFA9E21D4
:1028F000C90069184870A948281806F0E5FA9E2111
:10290000C90069188870A648281806F0DDFA9E21CB
:10291000C9006918C870A348281806F0D5FA9E2186
:10292000C90069180871A048281806F0CDFA9E2140
:10293000C9006918487102A80021002206C001A838
:10294000016002A89E21C9006918C97801719E2101
:10295000C9006918097941719E21C900691849792E
:102960008171D64E02AA0021300003F0BEFB01A8FF
:10297000002101709E21C900695C81709E21C900FF
:102980006918497841709E21C90069188978C17019
:1029900001AA0021300003F014FC387BC00700D4EA
:1029A0007EE0C748808A69460880C64F684600882E
:1029B0003C2105F0F9FFB876684600880490009045
:1029C00004983C2180B205F0EFFF80B20101091AA2
:1029D00089000098401A7877316830680904090E38
:1029E0004906490F8A00511849000005000F0818D0
:1029F000797FC2B252183C2A03DBBA7E521CBA76E7
:102A00003C3808187877316830680902090E890661
:102A1000890F8A00511849000003000F0818B97E79
:102A2000C2B25218182A00DB18380818B876B87ED7
:102A300000900A2105F0B8FF0201009983001818E0
:102A40004000081A1043B876787F00900A2105F0FC
:102A5000ABFF02010099830018184000081A1043C8
:102A60007877CA20706253207062B068CF49014005
:102A7000B160F068C007FCD5F069CD490140B87E6F
:102A800000040843F061F069CA490140787F000200
:102A90000843F061B068B10D0143B160FF2070627E
:102AA0003B486FE001F082FE39486BE084C70008C4
:102AB000454E000030000000310000006816002084
:102AC000796D200006F016F9002807D130783F28EC
:102AD00001D03100C8E201F0EBFEC8E2B96D200080
:102AE00006F008F900281CD130783F2801D03100C9
:102AF000BAE2AF21890022A805F024FF0125387B26
:102B0000012303402200C84922A805F0A9FFC748B5
:102B10004178C908294222A900D1FBE0C44A8018A3
:102B2000F9E0F96D200006F0E5F800283ED1307894
:102B30003F2826D0300001F0FBF9002800D085E2C4
:102B4000BC482F1822003100380000F053FF280045
:102B5000D43000210022002300241EC01EC02038D3
:102B6000390006F055F845212800B030FDF72AFB62
:102B7000BFF34F8FCE48CF490860BFF34F8F00BFE0
:102B8000FDE7AC482918200001F02AF86FE200BFE9
:102B9000CC040000DE040000E1040000E4040000B6
:102BA000E7040000EA040000ED040000396E200094
:102BB00006F0A0F800285CD130783F2841D0BEA1B3
:102BC000300006F097F800281AD102F0A3F8AF21E0
:102BD000890022A805F0B6FE0125387B8008012374
:102BE00003402200904922A805F03AFF8F4841781F
:102BF000C908294222A900D18CE08D4A80188AE0B8
:102C0000AEA1300006F076F8002800D01EE202F0F7
:102C100039F8AF21890022A805F094FE0125387B00
:102C200080080123034022007F4922A805F018FFF5
:102C30007E484178C908294222A96BD07C4A801875
:102C400069E0AF21890022A805F07CFE0125387BD0
:102C50008008012303402200734922A805F000FFE9
:102C600072484178C908294222A953D0704A801875
:102C700051E0796E200006F03DF8002858D11E2161
:102C800022A805F05FFE694D6948291822A805F0C1
:102C9000BFFF30783F281DD087A1300006F02AF80A
:102CA000002802D102F088F816E084A1300006F076
:102CB00021F8002808D102F055F80DE00028004066
:102CC000000000205816002022A95948281805F0B5
:102CD0009FFFBBE105F082FB00281FD122A95448C9
:102CE000281805F095FFAF2189002AA805F02AFED3
:102CF0000126387BC0080123034022004A492AA844
:102D000005F0AEFE6878C00830422AA902D04848D3
:102D1000281800E0A04805F0C3FEA8E122A9444815
:102D2000281805F075FF3100200001F026F89EE11B
:102D3000B96E200005F0DEFF00283DD130783F2835
:102D400001D0310090E1C82122A805F0FBFDC94E59
:102D5000310022A805F05CFF03F048FF03F084FF78
:102D600004F02CFB22A9300005F052FF397B012032
:102D7000CA08012313400593890808400490AF2036
:102D8000C00028180390AA20C00028180290BA4852
:102D900028180190AD20C000281800909F20C00086
:102DA0002B1834302A18B54935E000BFFFFEFFFF6D
:102DB000FFFFC0FFFF80FFFFF96E200005F09AFFC4
:102DC000002839D130783F2801D031004CE1C821AA
:102DD000490022A805F0B6FDA64E310022A805F054
:102DE00017FF05F097FA05F04BF922A9300005F01E
:102DF0000FFFA34828180390A24828180290A24861
:102E000028180190A14828180090B820C0002B185D
:102E100014382A189E4922A805F022FE22A9200073
:102E200000F0DEFE23E100BFC8C70008B4070020A1
:102E3000270300008C050000396F200005F05AFFC1
:102E400000283DD13078312800D0FFE0914904209E
:102E500008600122904B1A603A7BF12313403B73C8
:102E600008220A608D49CA224A6253224A628A684D
:102E70008B4B13408B608B4A136803431360022310
:102E8000DB4314681C4014600A4A546820435060B5
:102E900050680340536088680A0D02438A60FF202F
:102EA000486230BFFEF770FA01F000F8DFE000BFC3
:102EB0000400FA050CED00E03000000031000000D5
:102EC0000A211CA805F03EFD0A211CA805F03AFDC8
:102ED000796F1CA805F09CFEA04905F0E1FD1CA936
:102EE000200005F007FF00285CD130783F2855D03E
:102EF0009BA1300005F0E2FD00282AD099A1300006
:102F000005F0DCFD002824D097A1300005F0D6FDA7
:102F100000281ED095A1300005F0D0FD002818D063
:102F200093A1300005F0CAFD002812D002993000AC
:102F300005F0C4FD00280CD08EA1300005F0BEFDC8
:102F4000002806D08CA1300005F0B8FD002800D084
:102F50007CE08A4D2300320029002800083000F070
:102F60008BFD4E48CA21416253214162C168490725
:102F7000FCD54169090C09042A8913019A1A9200A7
:102F8000521E0A43426181680722914304220A4388
:102F90008260FF21416256E092040020774A1100CE
:102FA00008315CE00A211CA805F0CCFC796F1CA854
:102FB00005F02EFE724905F073FD1CA9200005F0F6
:102FC00099FE00284FD130783F2844D064A13000CA
:102FD00005F074FD002829D062A1300005F06EFDD7
:102FE000002823D060A1300005F068FD00281DD026
:102FF0005EA1300005F062FD002817D05CA1300012
:1030000005F05CFD002811D00299300005F056FD56
:1030100000280BD057A1300005F050FD002805D046
:1030200055A1300005F04AFD00280FD1534D230073
:103030003200291D28000A3000F01EFD6889810039
:1030400008184000E8840120287310E031002000B7
:1030500000F074FE0BE04948021D01000A31200017
:1030600000F086FD03E02100200000F0A7FE7FB005
:103070005AB0F0BDDB0A00203C050000ACC80008D7
:1030800001060000F7050000E3050000CF05000081
:1030900020C90008280800501800005000280040EF
:1030A000FFFBFFFF0070004070B50024354D60202D
:1030B000285C002805D060202C5462212800FDF7F0
:1030C00081F82800AD300178002905D004704A212C
:1030D00028006430FDF776F82B48017E002903D0E4
:1030E00004761C21FDF76EF89920C000281801789D
:1030F000002905D00470402124482818FDF762F803
:103100002348C17A002903D0C4720C21FDF75AF874
:103110001A4E707E002804D0747620211D48FDF7D9
:1031200051F8B07D002805D0B4750821300010306A
:10313000FDF748F8307B002804D034730E213000AE
:10314000FDF740F82800F4300178002905D004701C
:1031500045212800B030FDF735F870BD90C7000854
:103160006D7300004D530000730000005300000019
:103170006D696E006800000048000000000000203B
:1031800098C70008FC0D0020781600208C04000071
:103190000816002058160020F0B581B0FCF790FF0B
:1031A000CB4C1925CB4F266801F0A4FE3200A0B20B
:1031B000C119022001F02EFE01F0C1FE241D6D1E7A
:1031C000F1D1C54C1325266801F094FE3200A0B25F
:1031D000C119022001F01EFE01F0B1FE241D6D1E7A
:1031E000F1D1BE4C2068009001F084FE009AA0B29C
:1031F000C119022001F00EFE01F0A1FE60680090EE
:1032000001F078FE009A201D80B2C119022001F061
:1032100001FE01F094FEA068009001F06BFE009AA0
:103220002000083080B2C119022001F0F3FD01F046
:1032300086FEE068009001F05DFE009A20000C30F0
:1032400080B2C119022001F0E5FD01F078FE20698D
:10325000009001F04FFE009A2000103080B2C1199A
:10326000022001F0D7FD01F06AFE6069009001F0D4
:1032700041FE009A2000143080B2C119022001F0F2
:10328000C9FD01F05CFEA069009001F033FE009AD8
:103290002000183080B2C119022001F0BBFD01F0FE
:1032A0004EFE8F4C1025266801F024FE3200A0B29D
:1032B000C119022001F0AEFD01F041FE241D6D1E7A
:1032C000F1D1884C256801F015FE2A00A0B2C11981
:1032D000022001F09FFD01F032FE6068009001F0D5
:1032E00009FE009A201D80B2C119022001F092FD52
:1032F00001F025FEA068009001F0FCFD009A20007E
:10330000083080B2C119022001F084FD01F017FEDF
:10331000754C2068009001F0EDFD009AA0B2C11933
:10332000022001F077FD01F00AFE6068009001F0D4
:10333000E1FD009A201D80B2C119022001F06AFD52
:1033400001F0FDFDA068009001F0D4FD009A20007E
:10335000083080B2C119022001F05CFD01F0EFFDE0
:10336000E068009001F0C6FD009A20000C3080B2A9
:10337000C119022001F04EFD01F0E1FD206900902D
:1033800001F0B8FD009A2000103080B2C11902206F
:1033900001F040FD01F0D3FD6069009001F0AAFD4D
:1033A000009A2000143080B2C119022001F032FDD1
:1033B00001F0C5FDA069009001F09CFD009A20007D
:1033C000183080B2C119022001F024FD01F0B7FDD0
:1033D000E069009001F08EFD009A20001C3080B260
:1033E000C119022001F016FD01F0A9FDBE4C2069B3
:1033F000009001F07FFD009A2000103080B2C119CA
:10340000022001F007FD01F09AFD6069009001F0D3
:1034100071FD009A2000143080B2C119022001F021
:10342000F9FC01F08CFD2068009001F063FD009A2A
:10343000A0B2C119022001F0EDFC01F080FD60682E
:10344000009001F057FD009A201D80B2C1190220A2
:1034500001F0E0FC01F073FDA068009001F04AFD6E
:10346000009A2000083080B2C119022001F0D2FC7D
:1034700001F065FDE068009001F03CFD009A20003D
:103480000C3080B2C119022001F0C4FC01F057FDDC
:10349000964C1225266801F02DFD3200A0B2C1190C
:1034A000022001F0B7FC01F04AFD241D6D1EF1D190
:1034B0008F4C904D256001F01DFD2A00A0B2C1196E
:1034C000022001F0A7FC01F03AFD01B0F0BD0000C0
:1034D000FC0D002000D00108600E002078160020AE
:1034E00088120020081600205816002030B581B040
:1034F0008149824A90B2401800681060131D06206E
:1035000006249DB26D182D681D601D1DADB26D188D
:103510002D685D601D000835ADB26D182D689D6089
:103520001D000C35ADB26D182D68DD601033641EC2
:10353000E7D1130064339BB25B181B68536613001A
:10354000683306249DB26D182D681D601D1DADB237
:103550006D182D685D601D000835ADB26D182D68C1
:103560009D600C33641EEDD1654B9CB264182468D9
:103570001C601C1DA4B2641824685C601C00083424
:10358000A4B2641824689C601C000C34A4B26418B3
:103590002468DC601C001034A4B2641824681C6128
:1035A0001C001434A4B2641824685C611C00183434
:1035B000A4B2641824689C61524BD31804249DB2B1
:1035C0006D182D681D601D1DADB26D182D685D60F4
:1035D0001D000835ADB26D182D689D601D000C35BD
:1035E000ADB26D182D68DD601033641EE7D1AC4BB1
:1035F0009CB2641824681C601C1DA4B26418246862
:103600005C601C000834A4B2641824689C60A54B5C
:103610009CB2641824681C601C1DA4B26418246841
:103620005C601C000834A4B2641824689C601C0010
:103630000C34A4B264182468DC601C001034A4B2FA
:10364000641824681C611C001434A4B26418246833
:103650005C611C001834A4B2641824689C611C00CE
:103660001C34A4B264182468DC611F4B1C001034A5
:10367000A4B2641824681C611C001434A4B2641839
:1036800024685C619CB2641824681C601C1DA4B290
:10369000641824685C601C000834A4B264182468B0
:1036A0009C601C000C34A4B264182468DC60130015
:1036B000B0339CB2641824681C601C1DA4B264184A
:1036C00024685C601C000834A4B2641824689C6000
:1036D0000C33401EEDD11100D431C348101805F051
:1036E00097FA01B030BD000000000020AC0E0020B1
:1036F0003C000020AA5555AA00D00108FC0D00206E
:10370000781600208C040000F0B581B09B4C052297
:103710009B49200001F00AFD05229A49200014303F
:1037200001F004FD984F052239002000283001F0F7
:10373000FDFC200042309549C180954901814181BD
:1037400000258581C5810582C90041828908818261
:10375000C1820126067646768676C57606770221F0
:103760004177A2490180A249418081800522844994
:103770002000643001F0DAFC052282492000783014
:1037800001F0D4FC0522390020008C3001F0CEFC81
:103790002100A0310D704E7002208870CD708D8098
:1037A0008E71CE710E724D724D81142008733C499A
:1037B00003228A74A34AA2186423138053809B00B7
:1037C0009380D3801672567250819620400090816B
:1037D0009D489E4A02609E4A82609E4AC26006746C
:1037E0002D20087048708870CD700D718E71CE716B
:1037F0000E724D725A208872974898A102001032BA
:103800000B6813600221818295A10A7802704A78C0
:10381000427094A1021D0B7813704B78537006818F
:10382000022141811F4F06228F49380001F07EFCA2
:1038300006228E49B81D01F099FC03228CA13800A4
:103840000C3001F073FC8BA039000F3102780A7044
:1038500042784A7082788A7085A0390012310278E5
:103860000A7042784A7082788A7081A039001531D6
:1038700002780A7042784A7082788A703D76172002
:1038800078767D833D7705207877BE77FE7717229F
:10389000D2492000D43001F049FC01B0F0BD000055
:1038A000081600205816002030B5FFB0B0B0040054
:1038B0000800150005F008FB2080AF21890068464C
:1038C00005F040F823882A00A649684605F0C8F8A4
:1038D000A5484178C908C907694602D5A34A801896
:1038E00000E0CF4805F0DCF87FB030B030BD30B537
:1038F000FFB0B0B004000800150005F0E5FA207034
:10390000AF218900684605F01DF823782A00954903
:10391000684605F0A5F894484178C908C907694682
:1039200002D5924A801800E0BD4805F0B9F87FB092
:1039300030B030BD30B5FFB0B0B0040008001500A5
:1039400005F0C2FA2070AF218900684604F0FAFF42
:10395000002023562A008349684605F081F88248F2
:103960004178C908C907694602D5804A801800E035
:10397000AB4805F095F87FB030B030BDFC0D0020AD
:10398000F4C60008FCC6000804C70008E02E0000CA
:10399000C409000030B5FFB0B2B004000800150043
:1039A00005F0A4FC05F0A9FC2060AF21890002A865
:1039B00004F0C8FF206805F0E5FC009001912A00A2
:1039C000A84902A805F04CF867484178C908C9071A
:1039D00002A902D5654A801800E0914805F060F818
:1039E0007FB032B030BD00008C050000E81C000044
:1039F0005E1A000070B5FFB0B1B004000E001500F3
:103A0000042104F09DFF3100200005F001F9AF21F1
:103A10008900684604F096FF23002A00A249684600
:103A200005F01EF850484178C908C907694602D513
:103A30004E4A801800E07A4805F032F87FB031B085
:103A400070BD00008C0400007816002000000C42BD
:103A50000000C8C10000FA42000000206D696E003D
:103A60006D00000073000000A0C70008A8C7000890
:103A70003030000032330000F2B5FFB0BDB00500B9
:103A800014001F0007A80021002200230EC006C05A
:103A9000062102A804F056FF04A8A6494CC94CC050
:103AA0000621684604F04EFFA3A62A883100684626
:103AB00004F0D6FF04A9200005F07DFC211802A81F
:103AC00005F0A6F80100BC9805F0A2F8200005F06A
:103AD000FBF928800621684604F034FF2A8831006B
:103AE000684604F0BDFF694607A805F091F802A9F1
:103AF00004F0D6FFAF2189000CA804F023FF07AB28
:103B00003A0069490CA804F0ABFF17484178C9088E
:103B1000C9070CA902D5154A801800E0404804F0F6
:103B2000BFFF7FB03EB0F0BD10B5FFB0B1B0040034
:103B3000AF218900684604F005FF22009E496846CF
:103B400004F08EFF08484078C008C00703D56846D7
:103B500003F0DEFD03E06946BB4802F048F87FB0A1
:103B600031B010BDC8C70008B4070020270300000B
:103B700070B5FFB0B7B005000E00140002A8002118
:103B8000002200230EC006C00621684604F0DAFEBB
:103B9000328869A1684604F063FF694602A805F00F
:103BA00037F8210004F07CFFAF21890007A804F05A
:103BB000C9FE02AB2A003C4907A804F051FF8F4818
:103BC0004178C908C90707A902D5A04A801800E0B2
:103BD000134804F065FF7FB037B070BDB0C7000870
:103BE00030B5FFB0B0B004000D00AF2189006846C9
:103BF00004F0A8FE2B0022002B49684604F030FF99
:103C00007E484178C908C907694602D58F4A80189D
:103C100000E0034804F044FF7FB030B030BD000046
:103C20009204002030B5FFB0B0B004000D00AF2109
:103C30008900684604F086FE2B8822009A4968466F
:103C400004F00EFF6D484178C908C907694602D5DE
:103C50007E4A801800E0AF4804F022FF7FB030B009
:103C600030BD0000D4C7000830B5FFB0B0B00400CC
:103C70000D00AF218900684604F064FE2B78220015
:103C80008949684604F0ECFE5C484178C908C907D8
:103C9000694602D56D4A801800E09E4804F000FF96
:103CA0007FB030B030BD0000E0C7000830B5FFB0D5
:103CB000B0B004000D00AF218900684604F042FE58
:103CC00000202B5622007849684604F0C9FE4B4874
:103CD0004178C908C907694602D55C4A801800E0E6
:103CE0008C4804F0DDFE7FB030B030BD30B5FFB0A1
:103CF000B2B004000D00AF21890002A804F022FE3A
:103D0000286805F03FFB009001912200824902A83B
:103D100004F0A6FE39484178C908C90702A902D5AE
:103D20004A4A801800E07B4804F0BAFE7FB032B007
:103D300030BD0000ECC700082564000030B5FFB0BE
:103D4000B0B004000D00AF218900684604F0FAFD10
:103D50002B0022007149684604F082FE2748417812
:103D6000C908C907694602D5384A801800E0694881
:103D700004F096FE7FB030B030BD30B5FFB0B0B0CB
:103D800004000D00AF218900684604F0DBFD2B0024
:103D900022006349684604F063FE18484178C90868
:103DA000C907694602D5294A801800E0594804F03D
:103DB00077FE7FB030B030BDF8C7000830B5FFB037
:103DC000B0B004000D00AF218900684604F0BAFDD0
:103DD0002B0022005349684604F042FE0748417810
:103DE000C908C907694602D5184A801800E0494841
:103DF00004F056FE7FB030B030BD0000B4070020A4
:103E0000F0B5FFB0B2B004000D0016001F00AF21E6
:103E1000890002A804F096FD019700962B0022006D
:103E2000414902A804F01CFE40484178C908C9076E
:103E300002A902D5054A801800E0364804F030FE99
:103E40007FB032B0F0BD0000004400402703000006
:103E5000F0B5FFB0B4B006000C0015001F00AF2194
:103E6000890004A804F06EFD380005F08BFA02907A
:103E70000391280005F086FA00900191230032009A
:103E8000954904A804F0ECFD28484178C908C90701
:103E900004A902D5914A801800E01E4804F000FEF3
:103EA0007FB034B0F0BD0000C8C7000830B581B0A5
:103EB0008B4C0420A060022023688A490A880340B2
:103EC0000FD1521C236803400BD1521C23680340BE
:103ED00007D1521C2368034003D1521C23680340BE
:103EE000EFD00A8080490A7B1043087301207F4984
:103EF00008600825A560C82002F07DFBA561C820E8
:103F000002F079FBA560C82002F075FBA56101B045
:103F100030BD00009204002000C800080CC8000852
:103F200024C800083CC8000864CD0008B40700207D
:103F3000F0B58BB0040006A80021002200230EC0BB
:103F400006C022220121200004F05CF80390222206
:103F50000221200004F056F807002222032120004D
:103F600004F050F8019022220421200004F04AF8C5
:103F700002902C220121200004F044F805002E229A
:103F80000121200004F03EF805902E22022120009D
:103F900004F038F804902E220321200004F032F8B7
:103FA00000900398201A6DD1200005F017FA201810
:103FB000401E0299401A65D10198884262D285421A
:103FC00060D2AF425ED20098B8425BD2049E864275
:103FD00058D2059DB54255D20398A84252D22A1A0A
:103FE000521E411C06A804F0B3FD8024640004F0B6
:103FF0006BFFA04246DA06A80021002200230EC073
:1040000006C0721B521E0598411C06A804F0A0FDB4
:1040100004F05AFFA04235DA06A80021002200234E
:104020000EC006C0009DAA1B521E0498411C06A883
:1040300004F08EFD04F048FFA04223DA06A8002118
:10404000002200230EC006C07A1B521E0098411C9D
:1040500006A804F07DFD04F037FFA04212DA06A89E
:104060000021002200230EC006C002980199421AC6
:10407000521E491C06A804F06BFD04F025FF210226
:10408000884202DB0020C04300E000200BB0F0BDFE
:1040900010B46F486F4A80214900C378002B04D0C8
:1040A0000378002B01D0116000E011614B0004790E
:1040B000002C04D04478002C01D0136000E0136180
:1040C0000B4A4379002B04D08078002801D011607E
:1040D00000E0116110BC704738CD000827030000D4
:1040E00010080050E01600203C000020280000507E
:1040F0001800005070B5584A9388584C200048303A
:10410000817C002912D04821615AA58FA9420AD288
:10411000D9070BD401211D0001232B432500A33512
:10412000467DA95502E019004D4B0B40C17C00298A
:104130000FD04188E58FA94208D2190002230B4312
:1041400001212500A335867DA95502E01900454BC4
:104150000B40017D002910D081884025655BA94274
:1041600008D2190004230B4301212500A335C07D8B
:10417000295402E018003C4B03403C49087C0028CD
:104180000BD00868496805F04DF903D218000823E0
:10419000034302E01800364B03403648817900297A
:1041A0000FD003214156002545578D4202DB6E4258
:1041B000B14203DA190010230B4302E019002E4B21
:1041C0000B40C17900290FD00421415601254557E4
:1041D0008D4202DB6E42B14203DA190020230B4309
:1041E00002E01900254B0B40017A00290FD0052170
:1041F000415602254057884202DB4542A94203DA74
:1042000018004023034302E018001D4B03401D48E3
:104210002018017A00290AD081880488A14203D29B
:10422000190080230B4302E01900174B0B40417A21
:1042300000290BD0C1884088814204D21800802315
:104240005B00034302E01800104B0340938070BDF5
:104250009F0E0020180800503C000020FC0D00209C
:10426000FEFF0000FDFF0000FBFF000078160020AD
:10427000F7FF000008160020EFFF0000DFFF00003E
:10428000BFFF00008C0400007FFF0000FFFE000065
:10429000F0B58BB0584840695849884212D3B348AA
:1042A000C17D00290ED00021C1758176802080005B
:1042B000AF4908608020AF490860AF480121016024
:1042C00049030161AD484078002800D18AE1AB483C
:1042D0000190002444700022A94D2B0006A8002163
:1042E00000260027C2C042C0A648C668642E02D974
:1042F000AE4200D83300009000690590642802D9CE
:10430000834200D30346009840690490642802D990
:10431000834200D30346009880690390642802D941
:10432000834200D303460098C0690290642802D9F2
:10433000834200D3034618006438864205D3180030
:104340006430864201D206960121059E1800643829
:10435000864208D318006430864204D2304606AE46
:104360008F00F051491C049E18006438864208D31F
:1043700018006430864204D2304606AE8F00F051F9
:10438000491C039E18006438864208D31800643024
:10439000864204D2304606AE8F00F051491C029E80
:1043A00018006438864207D330466433984203D2FB
:1043B00006AB8E009851491C0698002810D0024682
:1043C000079800280CD012180898002808D0121856
:1043D0000998002804D012180A98002800D0121852
:1043E000100004F0E1FA05F031F8C14904F0B6FF1D
:1043F00006D8C820400010E010080140E0920000FC
:10440000BC4905F03EF805F0CDF80104490CFF2049
:104410004C304843B84904F0C4FAB849019A1278BC
:104420009200885001980078401C01990870C0B231
:10443000042800DCD6E000990C800022280000232C
:1044400000214E4D2D7804950395AC4D0295039EA9
:10445000B607B60F0ED02F68142F07D3B84200D37B
:104460003800BB4200D23B00C919521C761E2D1DDC
:10447000002EF0D1039EB6082FD02F68142F07D33B
:10448000B84200D33800BB4200D23B00C919521CCD
:104490006F68142F07D3B84200D33800BB4200D254
:1044A0003B00C919521CAF68142F07D3B84200D380
:1044B0003800BB4200D23B00C919521CEF68142FD0
:1044C00007D3B84200D33800BB4200D23B00C91921
:1044D000521C761E1035002ECFD1022A04DD081A98
:1044E000C01A911E04F060FA0100002205A8002302
:1044F0000025002668C028C0049B029E01252B428F
:104500000BD0376808000F38874205D308000F30FA
:10451000874201D205970122361D580820D033006A
:104520000E000F36039604911968049E0F3E029602
:10453000B14206D3039EB14203D205AE9700F151BA
:10454000521C5968029EB14206D3039EB14203D267
:1045500005AE9700F151521C401E08330028E3D1EC
:10456000012A1EDD002005A9052310E00816002001
:104570001404014080E100E018080050C11200203E
:10458000FFFF00008C1200208019091D5B1E0E68C1
:10459000002E01D0002BF7D180B2110004F001FAF7
:1045A00001E0C82040000099088001990C70019832
:1045B00085700098C46000980462009804610098B7
:1045C0004462009844610098846200988461009875
:1045D000C4620098C46100980463B2484461012138
:1045E000C94301600BB0F0BDD0B584B0A34C22002C
:1045F0003032210028312000203004F0A1F82000C2
:1046000030300CC82000303003C804F0E8FF02AAA4
:1046100003C2200028300CC82000283003C804F052
:10462000DEFF6A4603C268460CC803C805F099F865
:1046300005F071F902000B0020002030C0C83000E6
:10464000390005F0C8F905F027FA97A20CCA04F062
:10465000C6FF2200383203C22000383003C805F0FC
:1046600081FAE0703000390032003B0004F0B7FFFF
:1046700006000F0002A803C832003B0005F071F8E5
:1046800005F049F902000B002000283003C805F0AE
:10469000A2F905F001FA84A20CCA04F0A0FF20647C
:1046A000616405F05FFA2071684603C832003B0080
:1046B00005F057F805F02FF9220030320CCA05F04A
:1046C0008AF905F0E9F978A20CCA04F088FFA06421
:1046D000E16405F047FA6071207D002801D00020D8
:1046E0002075607D002801D00020607504B0D0BD29
:1046F00001D83D470000C84210270000AC1200203E
:10470000F0B583B05E4CA07C00284DD00020A07492
:104710005C4E20884221715A4843FA21890004F0F6
:1047200040F9B087584D608869884843574904F07C
:104730003BF9F087A088A9884843544904F034F92C
:1047400040217052E088278904F080FE060078003E
:10475000E188401A04F08AFE0100300005F02BFACF
:104760004B4905F07DFA06004A4C66614AA003C831
:1047700005F0CEFA6A4603C2300004F003FE6A4632
:104780000CCA05F028F905F08FFC02000B00002090
:10479000434905F020F9D5A20CCA04F0E2FF04F069
:1047A000ACFD60600120E87703B0F0BDF0B585B0E6
:1047B000B1484168B14A0A400F21D302E024E40421
:1047C0001C401304FC25AD031D402543F8235B0169
:1047D00013402B43140D25011D43140C0C402C4396
:1047E000A74A94630068A74B03405363250C2548F0
:1047F0009E22D20082182E06360FB700BE19760010
:104800000D4075191570250A2E06360FB700BE1912
:1048100076000D407519557025062D0FAE007519DF
:104820006D000C402C1994701C0C2509AE007519F4
:104830006D000C402C19D4701C0A25062D0FAE00FB
:1048400075196D000C402C1914711C06240FA5005D
:104850002C19640019406118517151790391117933
:104860000291D178019191780091537812789E4904
:10487000D24C001904F0F4F805B0F0BD0816002081
:10488000AC160020FC0D00203E0E0020FF0F0000A3
:104890000000204178160020851B1DCE5D0529C033
:1048A0000024AD401008014046DF617EDCA54C408D
:1048B000F0B587B001A80021002200230EC006C079
:1048C0009C4F6F4D9C4C5A20205C00280AD09BA323
:1048D000AA6A390001A804F0C3F821003C3101A8FC
:1048E000FFF7A0F920005A30407800280AD093A39F
:1048F000EA6A390001A804F0B3F821003E3101A8AA
:10490000FFF790F98E4EB07800280AD08BA32A6B5F
:10491000390001A804F0A4F82100403101A8FFF7F4
:1049200081F9A620205C00280DD0A86A0090F378B9
:104930005B1CA34AA34901A804F092F82100A3310B
:1049400001A8FFF791F9A04F787800280DD0E86A08
:10495000009033795B1C9A4A9A4901A804F080F8C8
:104960002100A43101A8FFF77FF9B87800280DD005
:10497000286B009073795B1C914A924901A804F05E
:104980006FF82100A53101A8FFF76EF98F48017C6F
:10499000002907D08E4901AA28C928C2011D01A8F3
:1049A000FFF7A4F98B4D874E64A7287800280CD018
:1049B0000097012388A2310001A804F051F8922049
:1049C000C000211801A8FFF72DF9687800280BD046
:1049D0000097022380A2310001A804F041F8A24808
:1049E000211801A8FFF71EF9A04DA14CA0790028BD
:1049F0000AD0009701232A00310001A804F030F802
:104A0000E11C01A8FFF752F9E07900280AD00097CD
:104A100002232A00310001A804F022F8211D01A878
:104A2000FFF744F9207A00280AD0009703232A00D0
:104A3000310001A804F014F8611D01A8FFF736F950
:104A40008CA5009701232A00310001A804F008F882
:104A500021000C3101A8FFF707F9009702232A0073
:104A6000310001A803F0FCFF21000D3101A8FFF780
:104A7000FBF807B0F0BD0000002800403FFFFF003A
:104A8000000000207F7F3F0010B588B0040002F0D6
:104A9000ADF802F0E9F802F091FC7748017B264876
:104AA000012201230B400693CB081340059389088C
:104AB0000A400492AF21C90041180391AA21C900FC
:104AC000411802916D4941180191AD21C900411869
:104AD00000919F21C9004318343142189B4920009E
:104AE00003F0BEFF08B010BD54C8000866666666D5
:104AF000661271C010B584B0040003F00BFC03F023
:104B0000BFFA0D485E49411803917E494118029150
:104B10007D49411801917D4941180091B821C90092
:104B2000431814394218A249200003F099FF04B039
:104B300010BD000074C80008FC0D00204355520051
:104B4000560E002070B5724CA079002834D1FFF7C2
:104B50002DFE7F4D7F482E187F48804943186039CD
:104B600042187F49300003F07BFFFFF7A1FE424867
:104B7000007BC00707D460780821014361703000D2
:104B8000FEF7D2FF09E03000FEF7CEFF89A130002A
:104B900003F086FF300002F0BBFD6078F021014099
:104BA000617000206080C8218900E01D03F0C8FE0C
:104BB0009149280003F0C6FE70BD0000CC0400003F
:104BC0007CC7000874C70008A20E002078160020D9
:104BD0007CC80008901200204C00000070B54C4CBE
:104BE000A07900283ED1FFF7E1FD594E594835180C
:104BF00059485A494318603942185949280003F066
:104C00002FFF280004F0EAFB2818FFF73DFF2800DB
:104C100004F0E4FB2818FFF76DFF1748007BC0077E
:104C200007D460780821014361702800FEF77CFFFB
:104C300009E02800FEF778FF5EA1280003F030FFAE
:104C4000280002F065FD6078F021014061700020CD
:104C50006080C8218900E01D03F072FE66493000C3
:104C600003F070FE70BD00009204000084C80008CC
:104C70000816002042544E003C0000203C05000075
:104C80000106000070B55DA65DA5FA24640022004F
:104C90002900300001F00EFF00280BD0220029006F
:104CA000300001F007FF002804D003F09FFC5548B6
:104CB00001F0A1FC01F0BAFC27480100F431002406
:104CC0000A78002A04D00C704521B030FBF77AFA3C
:104CD00001F074FE0E488079002800D0E44301F012
:104CE000C8FE01F0D6FE4848017B0422002C06D005
:104CF000F3230B400373417B0A43427370BD0A43A5
:104D0000027370BDF7050000E3050000CF05000049
:104D1000B407002070B539A639A5FA246400220032
:104D20002900300001F0C6FE002806D0220029002C
:104D3000300001F0BFFE002801D103F057FC3248DB
:104D4000017BF3220A40027370BD000008CA00080C
:104D50006C01002026030000FC0D00202C05000043
:104D60000CC7000870B5294E25A5FA24A40022001E
:104D70002900300001F09EFE010010D02200290021
:104D8000300001F097FE010009D022002900300018
:104D900001F090FE010002D00020C04370BD010070
:104DA00004D119490A7B082313430B7370BD00001B
:104DB00088CB00087D0D0A0070B5154E10A5FA24A9
:104DC000A40022002900300001F074FE01000DD083
:104DD00022002900300001F06DFE010006D0220003
:104DE0002900300001F066FE010004D106490A7B6B
:104DF000F72313400B7370BD4606000041540000BA
:104E00004F4B0000DC0500003C0000208CC800086F
:104E10009CC80008F6B581B04E48007C012801D13D
:104E2000022065E001254B490D7405F043F94A4F16
:104E30004A4E04003068284008D005F03BF9001BBA
:104E4000B842F7D30320694608704CE00227306867
:104E5000384000D037603068C00526D430688005FF
:104E600023D43068400520D4306800051DD4306854
:104E700080041AD43068800317D43068C00314D477
:104E80000298019900226C462270324B5A610860E8
:104E900005F010F90400306828400BD005F00AF93D
:104EA000001B2D498842F6D3CCE700F095F8684600
:104EB000057018E03068384000D037603068C005B1
:104EC000F3D430688005F0D430684005EDD4306804
:104ED0000005EAD430688004E7D430688003E4D465
:104EE0003068C003E1D400201A490874684600788D
:104EF00003B0F0BD0121374802680A400BD0EFF340
:104F0000108272B65E4B83605E4B836082F31088C2
:104F1000026811400FD10222016811400DD0EFF359
:104F2000108172B6584BC360584BC36081F3108830
:104F30000068024001D001207047002070472548DA
:104F4000016802220A430260016801220A430260EA
:104F5000002070479416002051C300001820024022
:104F6000F0B581B0060005F0A5F80124494D070011
:104F7000286820400CD00020C0438642F8D0002E84
:104F800004D005F097F8C01B8642F1D203201EE042
:104F900002202968014000D028602868C00511D48B
:104FA000286880050ED4286840050BD428680005C1
:104FB00008D42868800405D42868800302D42868AF
:104FC000C00303D500F008F8012000E0002001B084
:104FD000F0BD00000420024030B400222C488023A1
:104FE0005B002C490C681C4004D042690224144325
:104FF00044611A004B0D0C681C4006D04469012521
:105000002543456114001A0022430B0D0C681C4017
:1050100006D0446908252543456114001A0022433F
:10502000CB0C0C681C4006D044690425254345611F
:1050300014001A0022439B000C681C4006D04469EF
:1050400010252543456114001A0022430B689B0379
:1050500006D5202344691C434461140020222243C6
:1050600080235B020C681C4006D044694025254320
:10507000456110001A0002430A6030BC704700000E
:10508000EFCDAB8905040302BFAE9D8C161514133A
:105090009416002018200240F0B581B007000E00E1
:1050A0002048007C012801D1022035E001201D4963
:1050B00008741A48FFF754FF002401002AD1002188
:1050C000C94331607968164D00960E0000E08036C5
:1050D000B968C9017A6889188E421BD211484461A7
:1050E0002868690D01432960286808210143296067
:1050F000F009C00104600948FFF732FF296808225F
:10510000914329602968084A0A402A600100DED0DC
:1051100000990E6003490C7401B0F0BD50C300004B
:105120000420024094160020FFFDFFFF70B4103AE7
:1051300003D378C9103A78C0FBD2530701D318C9FA
:1051400018C001D508C908C0D20704D30B88038052
:10515000891C801C002A01D50B78037070BC704735
:10516000521E22D30B78491C0370401C8B07F7D1C9
:105170008307DBD0DB4219D0401E121F08D308C9B9
:1051800043701B0A43801B0C0371001D121FF6D2D3
:10519000D20707D30B88437001D08A78C2701B0AEC
:1051A0008370704701D00B7843707047121F06D38D
:1051B00008C903801B0C4380001D121FF8D2D207C0
:1051C00005D30B88038005D08B788370704701D09E
:1051D0000B7803707047F1B40168421841684808C1
:1051E000131800988068C9071ED5494640181BE06F
:1051F0001778521C0770401C761EF9D1002C13D072
:105200001678521C89080D40032D01D11578521CC7
:10521000290271184D424119A41C05D00D78491C72
:105220000570401C641EF9D19A420FD01178521CAF
:10523000032503260E4002D11678F61C521C0C09D9
:105240000F2CD9D114780F34521CD5E700980C30AC
:10525000F2BC7047F0B589B00822002106A804F01E
:105260002FFF18220021684604F02AFF9F4801689A
:1052700004220A430260016804221140089108993F
:1052800001240168214301600168214008910899C7
:10529000016802220A430260006802210840089067
:1052A0000898A020C0058461914F0420B8620820AE
:1052B000B862904EC001B0628008B8624000B86227
:1052C0004008A021C9058862C0018862C008B86290
:1052D0002020B0624020B0628020B062BC628001B9
:1052E000B861009401940025029503950220049072
:1052F0006946A020C00504F0EDFE02200090019553
:1053000004946946380004F0E5FE042000900194FE
:105310000295039504956946380004F0DBFE0820E9
:10532000009001940295039504956946380004F0B5
:10533000D1FEA00200900194029503950495694660
:10534000300004F0C7FEE002009001950495694624
:10535000300004F0BFFE20020090019402950395F6
:1053600004956946380004F0B5FE6002009001948F
:105370000295039504956946380004F0ABFE2002BF
:10538000009001940295039504956946A020C005FC
:1053900004F0A0FE80200090019504946946380036
:1053A00004F098FE4020009001950494694638006E
:1053B00004F090FEA0020090019504956946A0209B
:1053C000C00504F087FEE00200900195049569464F
:1053D000A020C00504F07EFEE00300900194029539
:1053E000039504956946A020C00504F073FE2003D0
:1053F000009001940295039404956946380004F0E6
:1054000069FE2020009001940295039502200490EB
:105410006946300004F05EFE402000900194029541
:10542000039504956946300004F054FE80200090F6
:1054300001940295039504956946300004F04AFEF4
:10544000009401940295039404956946380004F091
:1054500041FE60030090019402950394049569460F
:10546000380004F037FE9B489B4942680A4042607E
:105470009A4A43681340436043680F27BB43234362
:10548000436003681940430D0B43036001680A4001
:10549000410C114301609248F1680140F1603168AC
:1054A000084030608F48F1680140F1603168084081
:1054B0003060E0200001069006AE34717571B47161
:1054C00006A804F05DFEC0200690347175710220BC
:1054D000B07106A804F054FE834801680902090A65
:1054E000016080208149086009B0F0BD2C100240A5
:1054F0000008005000040050F0B587B018220021C9
:10550000684604F0DDFD012000900324019400258D
:1055100004956946A020C00504F0DCFD022000903F
:1055200001940495724E6946300004F0D3FD0427BF
:105530000097012001900295039004956946300080
:1055400004F0C8FDB76208200090019404956946F4
:10555000300004F0BFFD3802009001940495654FBF
:105560006946380004F0B6FD8020000100900194E7
:1055700004956946380004F0ADFD80204000B0621B
:105580004000B0624008A021C905886280200090D8
:10559000019404956946300004F09CFD4020009081
:1055A000019404956946300004F094FD8020C00009
:1055B0000090019404956946A020C00504F08AFD7E
:1055C000802000010090019404956946A020C00548
:1055D00004F080FD8020000200900194049569464B
:1055E000A020C00504F076FD8020400100900194C9
:1055F00004956946300004F06DFD20200090019470
:1056000004956946380004F065FD4020009001943F
:1056100004956946380004F05DFD802000900194F7
:1056200004956946380004F055FD80204000009044
:10563000019404956946380004F04CFD80208000F8
:105640000090019404956946380004F043FD012060
:105650000090019404956946300004F03BFD8020E1
:1056600080010090019404956946300004F032FDF9
:105670000E200090019404956946A020C00504F016
:1056800029FDA0020090019404956946300004F0C1
:1056900021FD802040010090019404956946A020DE
:1056A000C00504F017FD0820009001940495694698
:1056B000380004F00FFD1048016804229143016096
:1056C0000168012291430160016802229143016057
:1056D00007B0F0BD0C000140FFF0FFFFFF0FFFFF20
:1056E000FFFFFCFFFFFFF3FF04E400E000E100E048
:1056F00000080050000400502C100240F0B58DB09E
:105700000C22002105A804F0DBFC0822002103A8DC
:1057100004F0D6FC04220021684604F0D1FC1422D7
:10572000002108A804F0CCFC404801688022D20285
:105730000A4302603E4801683E4A0A400260042073
:105740003D490860002605967F200690FF200790BF
:105750003A4C05A9200000F07FFC03A8112101713B
:105760000D2141710021817103AA200000F0BDFCD0
:10577000062069460870887048701320C8706A4611
:105780000021200000F01DFD08AD172028713720F2
:105790006871AE71802000060A900B9601272F7465
:1057A00008AA0021200000F07FFD0E20287137207C
:1057B0006871AE71802000060A900B962F7408AABB
:1057C0000021200000F002FECA20606253216162C5
:1057D0006269120C12041D2313436361A26807233C
:1057E0009A4304231343A360FF22626260626162F2
:1057F000A068A10C0143A160A068610C0143A160F5
:10580000A068210C0143A16062620822002101A866
:1058100004F056FC90204003019001A807714671E6
:10582000877104F0ADFC0DB0F0BD00BF5010024018
:1058300000E400E0FFFF00FF00E100E0002800407E
:1058400081B0012009490A6802430A6009680840DA
:105850000090009806480168064A0A4002608020CD
:1058600080000549086001B0704700BF3010024059
:1058700008E400E0FF00FFFF00E100E0F0B591B0B8
:10588000142200210BA804F01BFC1022002107A801
:1058900004F016FC18220021684604F011FC62484E
:1058A000410D82680A438260826811400691069920
:1058B000016801220A4302600168CA07D20F0692FA
:1058C0000699042102680A430260006801400691BB
:1058D0000698102000900326019600240494A02529
:1058E000ED056946280004F0F5FB202000900196A4
:1058F00004946946280004F0EDFB402000900196D6
:1059000004946946280004F0E5FB8027009701967F
:1059100004946946280004F0DDFB102000900196F5
:105920000494424D6946280004F0D4FB20200090E6
:10593000019604946946280004F0CCFB3C480168B9
:105940000F2291430160A03801683A4A0A40026080
:105950000168394A0A4002600168202291430160CF
:105960000168402291430160016839430160016888
:10597000324A0A40810D114301600168304A0A40F1
:10598000010D114301602F4DA86A10210143A96246
:10599000A86A20210143A962A86A40210143A962A3
:1059A000A86A0743AF62A86A8021C9010143A962BE
:1059B00080273F02A86A3843A8620B940C940D9488
:1059C0000E960F940BA9280004F04EFC686907217D
:1059D00088430121014369612869012188432861C5
:1059E0000420C043E9680140E96017490A68174B81
:1059F00013400B6069680840686068680821884344
:105A00006860A8681249014078030843A860C02074
:105A100000060790089409940A9707A9280004F043
:105A200009FC11B0F0BD00BF2C100240000800506E
:105A3000A8000240EFBFFFFFFFCFFFFFFFFCFFFF0B
:105A4000FFF3FFFF0024014008270140FFFFFFFD97
:105A5000E8FFFF7FF0B58DB007A8002100220023EA
:105A60000EC00EC068460EC00EC0AA488021C902F2
:105A7000C2680A43C260C2681140069106990421B7
:105A800002680A430260006801400691069880207F
:105A9000C00000900226019603240294002503957D
:105AA000049505959C4F6946380004F013FBB0023D
:105AB0000090019602940395049505956946380077
:105AC00004F008FB95480168954A0A4002603007D7
:105AD00094490860E12040020790089509950A95CD
